{"abi":[{"type":"constructor","inputs":[{"name":"token","type":"address","internalType":"address"}],"stateMutability":"nonpayable"},{"type":"function","name":"book","inputs":[{"name":"","type":"address","internalType":"address"}],"outputs":[{"name":"","type":"uint256","internalType":"uint256"}],"stateMutability":"view"},{"type":"function","name":"getTotalContributions","inputs":[],"outputs":[{"name":"","type":"uint256","internalType":"uint256"}],"stateMutability":"view"},{"type":"function","name":"owner","inputs":[],"outputs":[{"name":"","type":"address","internalType":"address"}],"stateMutability":"view"},{"type":"function","name":"owo","inputs":[],"outputs":[{"name":"","type":"address","internalType":"contract IERC20"}],"stateMutability":"view"},{"type":"function","name":"payAjo","inputs":[{"name":"_amount","type":"uint256","internalType":"uint256"}],"outputs":[],"stateMutability":"nonpayable"},{"type":"function","name":"totalContributions","inputs":[],"outputs":[{"name":"","type":"uint256","internalType":"uint256"}],"stateMutability":"view"},{"type":"function","name":"verifyAjo","inputs":[{"name":"_user","type":"address","internalType":"address"}],"outputs":[{"name":"","type":"uint256","internalType":"uint256"}],"stateMutability":"view"},{"type":"event","name":"ContributionMade","inputs":[{"name":"user","type":"address","indexed":true,"internalType":"address"},{"name":"amount","type":"uint256","indexed":false,"internalType":"uint256"}],"anonymous":false},{"type":"event","name":"WithdrawalMade","inputs":[{"name":"user","type":"address","indexed":true,"internalType":"address"},{"name":"amount","type":"uint256","indexed":false,"internalType":"uint256"}],"anonymous":false}],"bytecode":{"object":"0x608060405234801561000f575f5ffd5b50604051610a8f380380610a8f83398181016040528101906100319190610114565b335f5f6101000a81548173ffffffffffffffffffffffffffffffffffffffff021916908373ffffffffffffffffffffffffffffffffffffffff1602179055508060015f6101000a81548173ffffffffffffffffffffffffffffffffffffffff021916908373ffffffffffffffffffffffffffffffffffffffff1602179055505061013f565b5f5ffd5b5f73ffffffffffffffffffffffffffffffffffffffff82169050919050565b5f6100e3826100ba565b9050919050565b6100f3816100d9565b81146100fd575f5ffd5b50565b5f8151905061010e816100ea565b92915050565b5f60208284031215610129576101286100b6565b5b5f61013684828501610100565b91505092915050565b6109438061014c5f395ff3fe608060405234801561000f575f5ffd5b506004361061007b575f3560e01c80638da5cb5b116100595780638da5cb5b146100e9578063b431217014610107578063ddf556d014610137578063f10cc4f4146101555761007b565b806337c089231461007f5780637ca814601461009d5780638365e5fe146100cd575b5f5ffd5b610087610173565b60405161009491906104fe565b60405180910390f35b6100b760048036038101906100b29190610575565b610179565b6040516100c491906104fe565b60405180910390f35b6100e760048036038101906100e291906105ca565b61018e565b005b6100f161044e565b6040516100fe9190610604565b60405180910390f35b610121600480360381019061011c9190610575565b610472565b60405161012e91906104fe565b60405180910390f35b61013f6104b8565b60405161014c91906104fe565b60405180910390f35b61015d6104c1565b60405161016a9190610678565b60405180910390f35b60035481565b6002602052805f5260405f205f915090505481565b5f81116101d0576040517f08c379a00000000000000000000000000000000000000000000000000000000081526004016101c7906106eb565b60405180910390fd5b5f60015f9054906101000a900473ffffffffffffffffffffffffffffffffffffffff1673ffffffffffffffffffffffffffffffffffffffff166370a08231336040518263ffffffff1660e01b815260040161022b9190610604565b602060405180830381865afa158015610246573d5f5f3e3d5ffd5b505050506040513d601f19601f8201168201806040525081019061026a919061071d565b9050818110156102af576040517f08c379a00000000000000000000000000000000000000000000000000000000081526004016102a690610792565b60405180910390fd5b5f60015f9054906101000a900473ffffffffffffffffffffffffffffffffffffffff1673ffffffffffffffffffffffffffffffffffffffff166323b872dd3330866040518463ffffffff1660e01b815260040161030e939291906107b0565b6020604051808303815f875af115801561032a573d5f5f3e3d5ffd5b505050506040513d601f19601f8201168201806040525081019061034e919061081a565b905080610390576040517f08c379a00000000000000000000000000000000000000000000000000000000081526004016103879061088f565b60405180910390fd5b8260025f3373ffffffffffffffffffffffffffffffffffffffff1673ffffffffffffffffffffffffffffffffffffffff1681526020019081526020015f205f8282546103dc91906108da565b925050819055508260035f8282546103f491906108da565b925050819055503373ffffffffffffffffffffffffffffffffffffffff167f6770260ea820d2f539364e7617e021543aaf6d192f2fd2a47c20db6bd99a4eb98460405161044191906104fe565b60405180910390a2505050565b5f5f9054906101000a900473ffffffffffffffffffffffffffffffffffffffff1681565b5f60025f8373ffffffffffffffffffffffffffffffffffffffff1673ffffffffffffffffffffffffffffffffffffffff1681526020019081526020015f20549050919050565b5f600354905090565b60015f9054906101000a900473ffffffffffffffffffffffffffffffffffffffff1681565b5f819050919050565b6104f8816104e6565b82525050565b5f6020820190506105115f8301846104ef565b92915050565b5f5ffd5b5f73ffffffffffffffffffffffffffffffffffffffff82169050919050565b5f6105448261051b565b9050919050565b6105548161053a565b811461055e575f5ffd5b50565b5f8135905061056f8161054b565b92915050565b5f6020828403121561058a57610589610517565b5b5f61059784828501610561565b91505092915050565b6105a9816104e6565b81146105b3575f5ffd5b50565b5f813590506105c4816105a0565b92915050565b5f602082840312156105df576105de610517565b5b5f6105ec848285016105b6565b91505092915050565b6105fe8161053a565b82525050565b5f6020820190506106175f8301846105f5565b92915050565b5f819050919050565b5f61064061063b6106368461051b565b61061d565b61051b565b9050919050565b5f61065182610626565b9050919050565b5f61066282610647565b9050919050565b61067281610658565b82525050565b5f60208201905061068b5f830184610669565b92915050565b5f82825260208201905092915050565b7f416d6f756e74206d7573742062652067726561746572207468616e207a65726f5f82015250565b5f6106d5602083610691565b91506106e0826106a1565b602082019050919050565b5f6020820190508181035f830152610702816106c9565b9050919050565b5f81519050610717816105a0565b92915050565b5f6020828403121561073257610731610517565b5b5f61073f84828501610709565b91505092915050565b7f494e53554646494349454e542042414c414e43450000000000000000000000005f82015250565b5f61077c601483610691565b915061078782610748565b602082019050919050565b5f6020820190508181035f8301526107a981610770565b9050919050565b5f6060820190506107c35f8301866105f5565b6107d060208301856105f5565b6107dd60408301846104ef565b949350505050565b5f8115159050919050565b6107f9816107e5565b8114610803575f5ffd5b50565b5f81519050610814816107f0565b92915050565b5f6020828403121561082f5761082e610517565b5b5f61083c84828501610806565b91505092915050565b7f5472616e73666572206661696c656400000000000000000000000000000000005f82015250565b5f610879600f83610691565b915061088482610845565b602082019050919050565b5f6020820190508181035f8301526108a68161086d565b9050919050565b7f4e487b71000000000000000000000000000000000000000000000000000000005f52601160045260245ffd5b5f6108e4826104e6565b91506108ef836104e6565b9250828201905080821115610907576109066108ad565b5b9291505056fea264697066735822122078587b4159ac44d9bf52f0cd5c5325f0e4a4a57ccaf4d26d8eaec0e4868eb7a164736f6c634300081c0033","linkReferences":{}},"methodIdentifiers":{"book(address)":"7ca81460","getTotalContributions()":"ddf556d0","owner()":"8da5cb5b","owo()":"f10cc4f4","payAjo(uint256)":"8365e5fe","totalContributions()":"37c08923","verifyAjo(address)":"b4312170"},"id":1}